:020000040800F2
:1000000000000220E92B0008D1280008DF280008A2
:10001000E5280008EB280008F1280008000000008F
:10002000000000000000000000000000F7280008A9
:1000300005290008000000001329000821290008F4
:10004000392C0008392C0008392C0008392C0008FC
:10005000392C0008392C0008392C0008392C0008EC
:10006000392C0008392C0008392C0008392C0008DC
:10007000392C0008392C0008392C0008392C0008CC
:10008000392C0008392C0008392C00080000000029
:10009000000000000000000000000000392C0008F3
:1000A000392C0008392C0008392C0008392C00089C
:1000B000392C0008392C0008392C0008392C00088C
:1000C000392C0008392C0008392C0008392C00087C
:1000D000392C0008392C0008392C000800000000D9
:1000E000392C0008392C0008392C000800000000C9
:1000F000000000000000000000000000392C000893
:1001000000000000392C0008392C0008392C0008A8
:1001100000000000000000000000000000000000DF
:10012000392C0008392C0008392C0008392C00081B
:10013000392C000800000000000000000000000052
:10014000000000000000000000000000392C000842
:10015000392C0008392C0008392C0008392C0008EB
:10016000392C0008392C00080000000000000000B5
:10017000000000000000000000000000000000007F
:1001800000000000392C0008000000000000000002
:08019000392C0008392C00088D
:1001980010B5054C237833B9044B13B10448AFF3B9
:1001A80000800123237010BDDC0100200000000046
:1001B800EC46000808B5034B1BB103490348AFF3ED
:1001C800008008BD00000000E0010020EC460008A7
:1001D800034613F8012B002AFBD1181A013870477F
:1001E80081F0004102E000BF83F0004330B54FEAE0
:1001F80041044FEA430594EA050F08BF90EA020F4D
:100208001FBF54EA000C55EA020C7FEA645C7FEADF
:10021800655C00F0E2804FEA5454D4EB5555B8BF02
:100228006D420CDD2C4480EA020281EA030382EA73
:10023800000083EA010180EA020281EA0303362D05
:1002480088BF30BD11F0004F4FEA01314FF4801CD8
:100258004CEA113102D0404261EB410113F0004FEA
:100268004FEA03334CEA133302D0524263EB4303A1
:1002780094EA050F00F0A780A4F10104D5F1200E3F
:100288000DDB02FA0EFC22FA05F2801841F100019A
:1002980003FA0EF2801843FA05F359410EE0A5F16E
:1002A80020050EF1200E012A03FA0EFC28BF4CF09F
:1002B800020C43FA05F3C01851EBE37101F0004555
:1002C80007D54FF0000EDCF1000C7EEB00006EEB62
:1002D8000101B1F5801F1BD3B1F5001F0CD34908EC
:1002E8005FEA30004FEA3C0C04F101044FEA445243
:1002F80012F5800F80F09A80BCF1004F08BF5FEACA
:10030800500C50F1000041EB045141EA050130BDA9
:100318005FEA4C0C404141EB010111F4801FA4F14C
:100328000104E9D191F0000F04BF01460020B1FAA1
:1003380081F308BF2033A3F10B03B3F120020CDAD9
:100348000C3208DD02F1140CC2F10C0201FA0CF0B7
:1003580021FA02F10CE002F11402D8BFC2F1200C1C
:1003680001FA02F120FA0CFCDCBF41EA0C019040D2
:10037800E41AA2BF01EB0451294330BD6FEA04041B
:100388001F3C1CDA0C340EDC04F11404C4F1200206
:1003980020FA04F001FA02F340EA030021FA04F318
:1003A80045EA030130BDC4F10C04C4F1200220FA6F
:1003B80002F001FA04F340EA0300294630BD21FAAD
:1003C80004F0294630BD94F0000F83F4801306BF73
:1003D80081F480110134013D4EE77FEA645C18BF67
:1003E8007FEA655C29D094EA050F08BF90EA020FFE
:1003F80005D054EA000C04BF1946104630BD91EAF6
:10040800030F1EBF0021002030BD5FEA545C05D1F8
:100418004000494128BF41F0004130BD14F5800437
:100428003CBF01F5801130BD01F0004545F0FE41AB
:1004380041F470014FF0000030BD7FEA645C1ABFE0
:10044800194610467FEA655C1CBF0B46024650EA17
:10045800013406BF52EA033591EA030F41F4002143
:1004680030BD00BF90F0000F04BF0021704730B5C9
:100478004FF4806404F132044FF000054FF000019E
:1004880050E700BF90F0000F04BF0021704730B55F
:100498004FF4806404F1320410F0004548BF404234
:1004A8004FF000013EE700BF42004FEAE2014FEA89
:1004B80031014FEA02701FBF12F07F4393F07F4F64
:1004C80081F06051704732F07F4208BF704793F067
:1004D8007F4F04BF41F40021704730B54FF460747A
:1004E80001F0004521F000411CE700BF50EA01027D
:1004F80008BF704730B54FF000050AE050EA010226
:1005080008BF704730B511F0004502D5404261EB95
:1005180041014FF4806404F132045FEA915C3FF4D6
:10052800D8AE4FF003025FEADC0C18BF03325FEA73
:10053800DC0C18BF033202EBDC02C2F1200300FA24
:1005480003FC20FA02F001FA03FE40EA0E0021FA49
:1005580002F11444BDE600BF70B54FF0FF0C4CF437
:10056800E06C1CEA11541DBF1CEA135594EA0C0FE9
:1005780095EA0C0F00F0DEF82C4481EA030621EA24
:100588004C5123EA4C5350EA013518BF52EA03355F
:1005980041F4801143F4801338D0A0FB02CE4FF011
:1005A8000005E1FB02E506F00042E0FB03E54FF041
:1005B8000006E1FB03569CF0000F18BF4EF0010E39
:1005C800A4F1FF04B6F5007F64F5407404D25FEA35
:1005D8004E0E6D4146EB060642EAC62141EA5551E8
:1005E8004FEAC52040EA5E504FEACE2EB4F1FD0C2A
:1005F80088BFBCF5E06F1ED8BEF1004F08BF5FEAA8
:10060800500E50F1000041EB045170BD06F0004659
:1006180046EA010140EA020081EA0301B4EB5C0406
:10062800C2BFD4EB0C0541EA045170BD41F48011FE
:100638004FF0000E013C00F3AB8014F1360FDEBF23
:10064800002001F0004170BDC4F10004203C35DAFF
:100658000C341BDC04F11404C4F1200500FA05F382
:1006680020FA04F001FA05F240EA020001F0004223
:1006780021F0004110EBD37021FA04F642EB060199
:100688005EEA430E08BF20EAD37070BDC4F10C04C3
:10069800C4F1200500FA04F320FA05F001FA04F287
:1006A80040EA020001F0004110EBD37041F1000173
:1006B8005EEA430E08BF20EAD37070BDC4F120057E
:1006C80000FA05F24EEA020E20FA04F301FA05F2E6
:1006D80043EA020321FA04F001F0004121FA04F28E
:1006E80020EA020000EBD3705EEA430E08BF20EA5E
:1006F800D37070BD94F0000F0FD101F00046400098
:1007080041EB010111F4801F08BF013CF7D041EA19
:10071800060195F0000F18BF704703F0004652001D
:1007280043EB030313F4801F08BF013DF7D043EAEE
:100738000603704794EA0C0F0CEA135518BF95EAA4
:100748000C0F0CD050EA410618BF52EA4306D1D12B
:1007580081EA030101F000414FF0000070BD50EA4A
:10076800410606BF1046194652EA430619D094EAD4
:100778000C0F02D150EA013613D195EA0C0F05D1BE
:1007880052EA03361CBF104619460AD181EA030112
:1007980001F0004141F0FE4141F470014FF00000CA
:1007A80070BD41F0FE4141F4780170BD70B54FF065
:1007B800FF0C4CF4E06C1CEA11541DBF1CEA1355E5
:1007C80094EA0C0F95EA0C0F00F0A7F8A4EB0504C7
:1007D80081EA030E52EA03354FEA013100F08880BE
:1007E8004FEA03334FF0805545EA131343EA126387
:1007F8004FEA022245EA111545EA10654FEA00263C
:100808000EF000419D4208BF964244F1FD0404F5F4
:10081800407402D25B084FEA3202B61A65EB030550
:100828005B084FEA32024FF480104FF4002CB6EB0D
:10083800020E75EB030E22BFB61A754640EA0C008D
:100848005B084FEA3202B6EB020E75EB030E22BFCD
:10085800B61A754640EA5C005B084FEA3202B6EB0E
:10086800020E75EB030E22BFB61A754640EA9C00CD
:100878005B084FEA3202B6EB020E75EB030E22BF9D
:10088800B61A754640EADC0055EA060E18D04FEA5B
:10089800051545EA16754FEA06164FEAC30343EAFB
:1008A80052734FEAC2025FEA1C1CC0D111F4801FC8
:1008B8000BD141EA00014FF000004FF0004CB6E7C1
:1008C80011F4801F04BF01430020B4F1FD0C88BF60
:1008D800BCF5E06F3FF6AFAEB5EB030C04BFB6EB6B
:1008E800020C5FEA500C50F1000041EB045170BD5E
:1008F8000EF0004E4EEA113114EB5C04C2BFD4EB8B
:100908000C0541EA045170BD41F480114FF0000E0E
:10091800013C90E645EA060E8DE60CEA135594EA8A
:100928000C0F08BF95EA0C0F3FF43BAF94EA0C0F8D
:100938000AD150EA01347FF434AF95EA0C0F7FF402
:1009480025AF104619462CE795EA0C0F06D152EA56
:1009580003353FF4FDAE1046194622E750EA41063A
:1009680018BF52EA43067FF4C5AE50EA41047FF44B
:100978000DAF52EA43057FF4EBAE12E74FF0FF3CB0
:1009880006E000BF4FF0010C02E000BF4FF0010C81
:100998004DF804CD4FEA410C7FEA6C5C4FEA430CFA
:1009A80018BF7FEA6C5C1BD001B050EA410C0CBF49
:1009B80052EA430C91EA030F02BF90EA020F0020AB
:1009C800704710F1000F91EA030F58BF994208BF12
:1009D80090422CBFD8176FEAE37040F001007047CF
:1009E8004FEA410C7FEA6C5C02D150EA013C07D126
:1009F8004FEA430C7FEA6C5CD6D152EA033CD3D071
:100A08005DF8040B704700BF8446104662468C466A
:100A18001946634600E000BF01B5FFF7B7FF00289D
:100A280048BF10F1000F01BD4DF808EDFFF7F4FFC6
:100A38000CBF012000205DF808FB00BF4DF808ED51
:100A4800FFF7EAFF34BF012000205DF808FB00BF74
:100A58004DF808EDFFF7E0FF94BF012000205DF896
:100A680008FB00BF4DF808EDFFF7CEFF94BF01204B
:100A780000205DF808FB00BF4DF808EDFFF7C4FF44
:100A880034BF012000205DF808FB00BF4FEA410C8D
:100A98007FEA6C5C02D150EA013C0AD14FEA430C70
:100AA8007FEA6C5C02D152EA033C02D14FF00000AD
:100AB80070474FF0010070474FEA410212F50012EB
:100AC80015D211D56FF47873B3EB625212D94FEA8D
:100AD800C12343F0004343EA505311F0004F23FA77
:100AE80002F018BF404270474FF00000704750EACC
:100AF800013005D111F0004008BF6FF00040704789
:100B08004FF00000704700BF53B94AB9002908BF29
:100B180000281CBF4FF0FF314FF0FF3000F072B9D2
:100B2800ADF1080C6DE904CE00F006F8DDF804E03C
:100B3800DDE9022304B070472DE9F047089E04461A
:100B48008846002B4BD18A42154667D9B2FA82F201
:100B58004AB1C2F1200701FA02F320FA07F79540DB
:100B680047EA030894404FEA154E230CB8FBFEF7FA
:100B78001FFA85FC0EFB178843EA084307FB0CF1B4
:100B8800994209D9EB1807F1FF3080F01B8199428F
:100B980040F21881023F2B445B1AA4B2B3FBFEF06B
:100BA8000EFB103344EA034400FB0CFCA44509D9AE
:100BB8002C1900F1FF3380F00781A44540F204812D
:100BC80002382C4440EA0740A4EB0C0400271EB16D
:100BD800D4400023C6E900433946BDE8F0878B427C
:100BE80009D9002E00F0EB800027C6E9000138463D
:100BF8003946BDE8F087B3FA83F7002F47D18B4217
:100C080002D3824200F2FA80841A61EB03030120C6
:100C18009846002EE0D0C6E90048DDE702B9FFDEBD
:100C2800B2FA82F2002A40F08F80491B4FEA154E33
:100C38001FFA85F80127B1FBFEFC230C0EFB1C11E3
:100C480043EA014308FB0CF1994207D9EB180CF170
:100C5800FF3002D2994200F2CD808446591AA3B2DD
:100C6800B1FBFEF00EFB101443EA044408FB00F845
:100C7800A04507D92C1900F1FF3302D2A04500F294
:100C8800B6801846A4EB080440EA0C409FE7C7F179
:100C9800200CBB4022FA0CFE4EEA030E01FA07F4C0
:100CA80020FA0CF521FA0CF34FEA1E482543B3FB52
:100CB800F8F92C0C08FB19331FFA8EFA44EA03439F
:100CC80009FB0AF49C4202FA07F200FA07F10BD971
:100CD8001EEB030309F1FF3080F087809C4240F24D
:100CE8008480A9F1020973441B1BADB2B3FBF8F071
:100CF80008FB103345EA034400FB0AFAA24508D969
:100D08001EEB040400F1FF336BD2A24569D9023807
:100D1800744440EA0940A0FB0289A4EB0A044C454C
:100D2800C2464B4654D351D0002E69D0B1EB0A05C8
:100D380064EB030404FA0CFCFD40FC404CEA050596
:100D4800C6E90054002747E7C2F1200320FA03F759
:100D5800954001FA02F021FA03F34FEA154E3843A1
:100D6800010CB3FBFEF71FFA85F80EFB173341EAB7
:100D7800034107FB08F38B4204FA02F407D9691808
:100D880007F1FF3C2FD28B422DD9023F2944CB1AC1
:100D980081B2B3FBFEF00EFB103341EA034100FBC6
:100DA80008F38B4207D9691800F1FF3C17D28B4230
:100DB80015D902382944C91A40EA07473BE737469C
:100DC800304609E70746E7E61846FBE64145ABD259
:100DD800B8EB020A69EB0E0201381346A4E7604635
:100DE800E9E7184695E76746D1E781467CE7023888
:100DF8002C4447E7ACF1020C2B442FE7384608E7B0
:100E08003746E9E6704700BF80B500AF0E4B1B6858
:100E18000D4A43F4007313600B4B1B680A4A43F4F2
:100E280080631360084B1B68074A43F480731360A0
:100E3800032000F02FF9002000F008F801F01CFD55
:100E48000023184680BD00BF003C024080B582B038
:100E580000AF7860124B1A68124B1B7819464FF492
:100E68007A73B3FBF1F3B2FBF3F3184600F039F9E8
:100E78000346002B01D001230EE07B680F2B0AD814
:100E8800002279684FF0FF3000F00FF9064A7B68BE
:100E98001360002300E0012318460837BD4680BDD3
:100EA80008000020040000200000002080B400AFEB
:100EB800064B1B781A46064B1B681344044A1360FA
:100EC80000BFBD465DF8047B704700BF04000020EA
:100ED8000402002080B400AF034B1B681846BD46CF
:100EE8005DF8047B704700BF0402002080B584B021
:100EF80000AF7860FFF7EEFFB8607B68FB60FB68C7
:100F0800B3F1FF3F05D0094B1B781A46FB68134421
:100F1800FB6000BFFFF7DEFF0246BB68D31AFA6822
:100F28009A42F7D800BF1037BD4680BD04000020A4
:100F380080B485B000AF78607B6803F00703FB607E
:100F48000C4BDB68BB60BA684FF6FF031340BB600D
:100F5800FB681A02BB68134343F0BF6343F40033D2
:100F6800BB60044ABB68D36000BF1437BD465DF858
:100F7800047B704700ED00E080B400AF044BDB68F1
:100F88001B0A03F007031846BD465DF8047B70474B
:100F980000ED00E080B483B000AF03463960FB7118
:100FA80097F90730002B0ADB3B68DAB20C4997F94E
:100FB80007301201D2B20B4483F800230AE03B68E1
:100FC800DAB20849FB7903F00F03043B1201D2B2ED
:100FD8000B441A7600BF0C37BD465DF8047B70479A
:100FE80000E100E000ED00E080B489B000AFF860F7
:100FF800B9607A60FB6803F00703FB61FB69C3F122
:101008000703042B28BF0423BB61FB690433062BA9
:1010180002D9FB69033B00E000237B614FF0FF32FC
:10102800BB6902FA03F3DA43BB681A407B699A404A
:101038004FF0FF317B6901FA03F3D9437B680B401A
:10104800134318462437BD465DF8047B70470000FB
:1010580080B582B000AF78607B68013BB3F1807FD8
:1010680001D301230FE00A4A7B68013B53600F213B
:101078004FF0FF30FFF78EFF054B00229A60044BBC
:1010880007221A60002318460837BD4680BD00BFF6
:1010980010E000E080B582B000AF78607868FFF7B4
:1010A80047FF00BF0837BD4680BD80B586B000AF9A
:1010B8000346B9607A60FB7300237B61FFF75CFF2E
:1010C80078617A68B9687869FFF78EFF024697F900
:1010D8000F3011461846FFF75DFF00BF1837BD46B1
:1010E80080BD80B582B000AF78607868FFF7B0FF48
:1010F800034618460837BD4680BD000080B489B055
:1011080000AF7860396000237B6100233B610023D6
:10111800BB610023FB6159E10122FB6902FA03F379
:101128007B613B681B687A6913403B613A697B695C
:101138009A4240F048813B685B68022B03D03B68C9
:101148005B68122B23D1FB69DA087B68083253F8F5
:101158002230BB61FB6903F007039B000F2202FAF0
:1011680003F3DB43BA691340BB613B681A69FB6947
:1011780003F007039B0002FA03F3BA691343BB6148
:10118800FB69DA087B680832B96943F822107B6882
:101198001B68BB61FB695B00032202FA03F3DB43B4
:1011A800BA691340BB613B685B6803F00302FB69E3
:1011B8005B0002FA03F3BA691343BB617B68BA693F
:1011C8001A603B685B68012B0BD03B685B68022B9D
:1011D80007D03B685B68112B03D03B685B68122B18
:1011E80030D17B689B68BB61FB695B00032202FA14
:1011F80003F3DB43BA691340BB613B68DA68FB69F8
:101208005B0002FA03F3BA691343BB617B68BA69EE
:101218009A607B685B68BB610122FB6902FA03F391
:10122800DB43BA691340BB613B685B681B0903F089
:101238000102FB6902FA03F3BA691343BB617B68D5
:10124800BA695A607B68DB68BB61FB695B00032293
:1012580002FA03F3DB43BA691340BB613B689A683F
:10126800FB695B0002FA03F3BA691343BB617B684D
:10127800BA69DA603B685B6803F08053002B00F0C2
:10128800A2800023FB60564B5B6C554A43F48043B5
:101298005364534B5B6C03F48043FB60FB68514A17
:1012A800FB699B08023352F82330BB61FB6903F0EA
:1012B80003039B000F2202FA03F3DB43BA691340CE
:1012C800BB617B68484A934219D07B68474A93427E
:1012D80013D07B68464A93420DD07B68454A9342B7
:1012E80007D07B68444A934201D1042308E00723CE
:1012F80006E0032304E0022302E0012300E00023C8
:10130800FA6902F0030292009340BA691343BB6181
:101318003449FB699B080233BA6941F82320374BEB
:101328001B68BB613B69DB43BA691340BB613B681F
:101338005B6803F48033002B03D0BA693B6913431D
:10134800BB612E4ABB6913602C4B5B68BB613B6970
:10135800DB43BA691340BB613B685B6803F4003345
:10136800002B03D0BA693B691343BB61234ABB69AD
:101378005360224B9B68BB613B69DB43BA691340EE
:10138800BB613B685B6803F48013002B03D0BA6928
:101398003B691343BB61194ABB699360174BDB6810
:1013A800BB613B69DB43BA691340BB613B685B685F
:1013B80003F40013002B03D0BA693B691343BB61E4
:1013C8000E4ABB69D360FB690133FB61FB690F2BD4
:1013D8007FF6A2AE00BF2437BD465DF8047B704798
:1013E800003802400038014000000240000402407A
:1013F80000080240000C024000100240003C01407E
:1014080080B483B000AF78600B467B8013467B7056
:101418007B78002B03D07A887B689A6103E07B880D
:101428001A047B689A6100BF0C37BD465DF8047BDF
:101438007047000080B586B000AF78607B68002BED
:1014480001D101232DE27B681B6803F00103002B07
:1014580075D0A34B9B6803F00C03042B0CD0A04B56
:101468009B6803F00C03082B12D19D4B5B6803F4B7
:101478008003B3F5800F0BD1994B1B6803F400333D
:10148800002B5BD07B685B68002B57D1012308E2F7
:101498007B685B68B3F5803F06D1914B1B68904A27
:1014A80043F4803313601DE07B685B68B3F5A02FBD
:1014B8000CD18B4B1B688A4A43F480231360884BFA
:1014C8001B68874A43F4803313600BE0844B1B6826
:1014D800834A23F480331360814B1B68804A23F4CA
:1014E800802313607B685B68002B13D0FFF7F2FC46
:1014F800386108E0FFF7EEFC02463B69D31A642B1B
:1015080001D90323CDE1764B1B6803F40033002B8C
:10151800F0D014E0FFF7DEFC386108E0FFF7DAFCF2
:1015280002463B69D31A642B01D90323B9E16C4BFA
:101538001B6803F40033002BF0D100E000BF7B6888
:101548001B6803F00203002B63D0654B9B6803F014
:101558000C03002B0BD0624B9B6803F00C03082B89
:101568001CD15F4B5B6803F48003002B16D15C4BE6
:101578001B6803F00203002B05D07B68DB68012B96
:1015880001D001238DE1564B1B6823F0F8027B68DC
:101598001B69DB00524913430B603AE07B68DB6848
:1015A800002B20D04F4B01221A60FFF793FC3861C3
:1015B80008E0FFF78FFC02463B69D31A022B01D9DA
:1015C80003236EE1464B1B6803F00203002BF0D0A7
:1015D800434B1B6823F0F8027B681B69DB0040491A
:1015E80013430B6015E03F4B00221A60FFF772FCB3
:1015F800386108E0FFF76EFC02463B69D31A022BFC
:1016080001D903234DE1364B1B6803F00203002B7D
:10161800F0D17B681B6803F00803002B30D07B688F
:101628005B69002B16D0304B01221A60FFF752FC81
:10163800386108E0FFF74EFC02463B69D31A022BDB
:1016480001D903232DE1264B5B6F03F00203002B26
:10165800F0D015E0244B00221A60FFF73BFC3861FC
:1016680008E0FFF737FC02463B69D31A022B01D981
:10167800032316E11A4B5B6F03F00203002BF0D132
:101688007B681B6803F00403002B00F0A080002394
:10169800FB75134B1B6C03F08053002B0FD10023F9
:1016A800FB600F4B1B6C0E4A43F0805313640C4BCA
:1016B8001B6C03F08053FB60FB680123FB750B4B2D
:1016C8001B6803F48073002B21D1084B1B68074A61
:1016D80043F480731360FFF7FDFB386111E000BF2E
:1016E8000038024000004742800E47420070004028
:1016F800FFF7F0FB02463B69D31A022B01D90323FB
:10170800CFE06A4B1B6803F48073002BF0D07B6832
:101718009B68012B06D1664B1B6F654A43F001039A
:1017280013671CE07B689B68052B0CD1604B1B6F13
:101738005F4A43F0040313675D4B1B6F5C4A43F039
:10174800010313670BE05A4B1B6F594A23F001033F
:101758001367574B1B6F564A23F0040313677B68C4
:101768009B68002B15D0FFF7B5FB38610AE0FFF73F
:10177800B1FB02463B69D31A41F28832934201D940
:1017880003238EE04A4B1B6F03F00203002BEED0BD
:1017980014E0FFF79FFB38610AE0FFF79BFB024666
:1017A8003B69D31A41F28832934201D9032378E086
:1017B8003F4B1B6F03F00203002BEED1FB7D012B87
:1017C80005D13B4B1B6C3A4A23F0805313647B686A
:1017D8009B69002B64D0364B9B6803F00C03082BE5
:1017E8005CD07B689B69022B41D1324B00221A6086
:1017F800FFF770FB386108E0FFF76CFB02463B69B6
:10180800D31A022B01D903234BE0294B1B6803F0A1
:101818000073002BF0D17B68DA697B681B6A1A4376
:101828007B685B6A9B011A437B689B6A5B08013B88
:101838001B041A437B68DB6A1B061D4913434B6074
:101848001C4B01221A60FFF745FB386108E0FFF7DF
:1018580041FB02463B69D31A022B01D9032320E03E
:10186800134B1B6803F00073002BF0D018E0114BEA
:1018780000221A60FFF72EFB386108E0FFF72AFB09
:1018880002463B69D31A022B01D9032309E0084B0E
:101898001B6803F00073002BF0D101E0012300E086
:1018A800002318461837BD4680BD00BF00700040B1
:1018B800003802406000474280B584B000AF7860CD
:1018C80039607B68002B01D10123CAE0674B1B6894
:1018D80003F00F033A689A420CD9644B3A68D2B2C3
:1018E8001A70624B1B6803F00F033A689A4201D0E2
:1018F8000123B6E07B681B6803F00203002B20D0AD
:101908007B681B6803F00403002B05D0584B9B68C9
:10191800574A43F4E05393607B681B6803F008035D
:10192800002B05D0524B9B68514A43F460439360A7
:101938004F4B9B6823F0F0027B689B684C4913432C
:101948008B607B681B6803F00103002B44D07B6825
:101958005B68012B07D1464B1B6803F40033002B4F
:1019680019D101237DE07B685B68022B03D07B687B
:101978005B68032B07D13E4B1B6803F00073002BF9
:1019880009D101236DE03A4B1B6803F00203002BD9
:1019980001D1012365E0364B9B6823F003027B6885
:1019A8005B68334913438B60FFF794FAF8600AE0E9
:1019B800FFF790FA0246FB68D31A41F28832934245
:1019C80001D903234DE02A4B9B6803F00C027B6886
:1019D8005B689B009A42EBD1244B1B6803F00F0312
:1019E8003A689A420CD2214B3A68D2B21A701F4B0D
:1019F8001B6803F00F033A689A4201D0012330E0D4
:101A08007B681B6803F00403002B08D0184B9B6805
:101A180023F4E0527B68DB68154913438B607B68CD
:101A28001B6803F00803002B09D0114B9B6823F4B3
:101A380060427B681B69DB000D4913438B6000F033
:101A48001DF801460A4B9B681B0903F00F03094A5E
:101A5800D35C21FA03F3084A13600020FFF7F6F974
:101A6800002318461037BD4680BD00BF003C024029
:101A7800003802400847000808000020F0B585B08B
:101A880000AF00237B600023FB6000233B60002342
:101A9800BB60504B9B6803F00C03042B07D0082B4A
:101AA80008D0002B40F08D804B4BBB608CE04B4B3B
:101AB800BB6089E0474B5B6803F03F037B60454BA5
:101AC8005B6803F48003002B23D0424B5B689B09BF
:101AD8004FF0000440F2FF114FF0000203EA010545
:101AE80004EA02063D4A02FB06F1002202FB05F267
:101AF8000A443A49A5FB0101531819467B684FF07F
:101B080000041A462346FEF7FFFF03460C46FB6017
:101B180049E0304B5B689B094FF0000440F2FF112D
:101B28004FF0000203EA010504EA0206294632469C
:101B38004FF000034FF00004540144EAD1644B0114
:101B480019462246491B62EB06024FF000034FF08C
:101B58000004940144EA91648B015B1A64EB02046B
:101B68004FF000014FF00002E20042EA5372D90040
:101B78000B4614465B1944EB06044FF000014FF086
:101B88000002A20242EA935299020B4614461846F2
:101B980021467B684FF000041A462346FEF7B4FF3F
:101BA80003460C46FB600B4B5B681B0C03F00303FE
:101BB80001335B003B60FA683B68B2FBF3F3BB6040
:101BC80002E0054BBB6000BFBB6818461437BD4632
:101BD800F0BD00BF003802400024F40040787D01C9
:101BE80080B582B000AF78607B68002B01D10123FB
:101BF8001DE07B6893F83D30DBB2002B06D17B6893
:101C0800002283F83C20786800F08EFF7B6802226F
:101C180083F83D207B681A687B68043319461046B0
:101C280000F0EEF97B68012283F83D200023184676
:101C38000837BD4680BD80B582B000AF78607B684C
:101C4800002B01D101231DE07B6893F83D30DBB206
:101C5800002B06D17B68002283F83C20786800F0CE
:101C680015F87B68022283F83D207B681A687B6838
:101C780004331946104600F0C3F97B68012283F843
:101C88003D20002318460837BD4680BD80B483B088
:101C980000AF786000BF0C37BD465DF8047B704725
:101CA80080B584B000AF786039607B681B6801221A
:101CB8003968184600F04AFC7B681B68104A934252
:101CC80007D17B681B685A6C7B681B6842F400422A
:101CD8005A647B681B689B6803F00703FB60FB681A
:101CE800062B07D07B681B681A687B681B6842F064
:101CF80001021A60002318461037BD4680BD00BF98
:101D08000000014080B584B000AFF860B9607A6027
:101D1800FB6893F83C30012B01D10223B4E0FB6847
:101D2800012283F83C20FB68022283F83D207B686F
:101D38000C2B00F29F8001A252F823F0791D0008B5
:101D48007D1E00087D1E00087D1E0008B91D0008C4
:101D58007D1E00087D1E00087D1E0008FB1D000872
:101D68007D1E00087D1E00087D1E00083B1E000821
:101D7800FB681B68B968184600F0C2F9FB681B6865
:101D88009A69FB681B6842F008029A61FB681B6845
:101D98009A69FB681B6822F004029A61FB681B6859
:101DA8009969BB681A69FB681B680A439A6162E013
:101DB800FB681B68B968184600F008FAFB681B68DE
:101DC8009A69FB681B6842F400629A61FB681B68A9
:101DD8009A69FB681B6822F480629A61FB681B6839
:101DE8009969BB681B691A02FB681B680A439A61F8
:101DF80041E0FB681B68B968184600F053FAFB68B5
:101E08001B68DA69FB681B6842F00802DA61FB6844
:101E18001B68DA69FB681B6822F00402DA61FB6858
:101E28001B68D969BB681A69FB681B680A43DA61D1
:101E380021E0FB681B68B968184600F09DFAFB684A
:101E48001B68DA69FB681B6842F40062DA61FB68A8
:101E58001B68DA69FB681B6822F48062DA61FB6838
:101E68001B68D969BB681B691A02FB681B680A43AF
:101E7800DA6100E000BFFB68012283F83D20FB68BF
:101E8800002283F83C20002318461037BD4680BD49
:101E980080B584B000AF786039607B6893F83C30D7
:101EA800012B01D10223A6E07B68012283F83C20A4
:101EB8007B68022283F83D207B681B689B68FB6077
:101EC800FB6823F07703FB60FB6823F47F43FB6028
:101ED8007B681B68FA689A603B681B68402B67D070
:101EE800402B0BD8102B73D0102B02D8002B6FD09F
:101EF80078E0202B6CD0302B6AD073E0702B0DD09B
:101F0800702B04D8502B33D0602B41D06AE0B3F546
:101F1800805F66D0B3F5005F17D063E07B68186810
:101F28003B6899683B685A683B68DB6800F0EEFAE2
:101F38007B681B689B68FB60FB6843F07703FB606A
:101F48007B681B68FA689A604CE07B6818683B6895
:101F580099683B685A683B68DB6800F0D7FA7B6889
:101F68001B689A687B681B6842F480429A6039E073
:101F78007B6818683B6859683B68DB681A4600F05C
:101F88004BFA7B681B685021184600F0A4FA29E038
:101F98007B6818683B6859683B68DB681A4600F03C
:101FA8006AFA7B681B686021184600F094FA19E009
:101FB8007B6818683B6859683B68DB681A4600F01C
:101FC8002BFA7B681B684021184600F084FA09E068
:101FD8007B681A683B681B681946104600F07BFA54
:101FE80000E000BF7B68012283F83D207B68002267
:101FF80083F83C20002318461037BD4680BD0000FA
:1020080080B485B000AF786039607B681B68FB607E
:102018007B68344A93420FD07B68B3F1804F0BD072
:102028007B68314A934207D07B68304A934203D099
:102038007B682F4A934208D1FB6823F07003FB604A
:102048003B685B68FA681343FB607B68254A9342E8
:102058001BD07B68B3F1804F17D07B68224A93422C
:1020680013D07B68214A93420FD07B68204A934261
:102078000BD07B681F4A934207D07B681E4A934265
:1020880003D07B681D4A934208D1FB6823F4407350
:10209800FB603B68DB68FA681343FB60FB6823F06E
:1020A80080023B685B691343FB607B68FA681A60CF
:1020B8003B689A687B68DA623B681A687B689A6250
:1020C8007B68084A934203D13B681A697B681A63A4
:1020D8007B6801225A6100BF1437BD465DF8047B56
:1020E800704700BF000001400004004000080040A5
:1020F800000C0040004001400044014000480140FD
:1021080080B487B000AF786039607B681B6A23F0C1
:1021180001027B681A627B681B6A7B617B685B686B
:102128003B617B689B69FB60FB6823F07003FB6085
:10213800FB6823F00303FB603B681B68FA681343E2
:10214800FB607B6923F002037B613B689B687A69CB
:1021580013437B617B681C4A93420CD17B6923F053
:1021680008037B613B68DB687A6913437B617B69A1
:1021780023F004037B617B68134A934211D13B69C6
:1021880023F480733B613B6923F400733B613B6834
:102198005B693A6913433B613B689B693A6913433E
:1021A8003B617B683A695A607B68FA689A613B6868
:1021B8005A687B685A637B687A691A6200BF1C3761
:1021C800BD465DF8047B70470000014080B487B0CD
:1021D80000AF786039607B681B6A23F010027B6867
:1021E8001A627B681B6A7B617B685B683B617B6802
:1021F8009B69FB60FB6823F4E043FB60FB6823F406
:102208004073FB603B681B681B02FA681343FB6062
:102218007B6923F020037B613B689B681B017A691B
:1022280013437B617B681E4A93420DD17B6923F07F
:1022380080037B613B68DB681B017A6913437B6120
:102248007B6923F040037B617B68154A934213D175
:102258003B6923F480633B613B6923F400633B6182
:102268003B685B699B003A6913433B613B689B6928
:102278009B003A6913433B617B683A695A607B6803
:10228800FA689A613B685A687B689A637B687A69DE
:102298001A6200BF1C37BD465DF8047B704700BF5B
:1022A8000000014080B487B000AF786039607B6877
:1022B8001B6A23F480727B681A627B681B6A7B61E5
:1022C8007B685B683B617B68DB69FB60FB6823F0CC
:1022D8007003FB60FB6823F00303FB603B681B682B
:1022E800FA681343FB607B6923F400737B613B68E6
:1022F8009B681B027A6913437B617B681D4A934282
:102308000DD17B6923F400637B613B68DB681B02AA
:102318007A6913437B617B6923F480637B617B6803
:10232800144A934213D13B6923F480533B613B69C0
:1023380023F400533B613B685B691B013A69134313
:102348003B613B689B691B013A6913433B617B68AE
:102358003A695A607B68FA68DA613B685A687B6850
:10236800DA637B687A691A6200BF1C37BD465DF87C
:10237800047B70470000014080B487B000AF7860EC
:1023880039607B681B6A23F480527B681A627B6819
:102398001B6A3B617B685B687B617B68DB69FB6010
:1023A800FB6823F4E043FB60FB6823F44073FB60A5
:1023B8003B681B681B02FA681343FB603B6923F404
:1023C80000533B613B689B681B033A6913433B61BD
:1023D8007B68104A934209D17B6923F480437B616F
:1023E8003B685B699B017A6913437B617B687A6907
:1023F8005A607B68FA68DA613B685A687B681A64D5
:102408007B683A691A6200BF1C37BD465DF8047BD9
:10241800704700BF0000014080B487B000AFF8608B
:10242800B9607A60FB681B6A7B61FB681B6A23F0F2
:102438000102FB681A62FB689B693B613B6923F0F8
:10244800F0033B617B681B013A6913433B617B697D
:1024580023F00A037B617A69BB6813437B61FB68DD
:102468003A699A61FB687A691A6200BF1C37BD46EF
:102478005DF8047B704780B487B000AFF860B9603E
:102488007A60FB681B6A23F01002FB681A62FB681B
:102498009B697B61FB681B6A3B617B6923F4704322
:1024A8007B617B681B037A6913437B613B6923F07B
:1024B800A0033B61BB681B013A6913433B61FB689E
:1024C8007A699A61FB683A691A6200BF1C37BD468F
:1024D8005DF8047B704780B485B000AF78603960E0
:1024E8007B689B68FB60FB6823F07003FB603A68BD
:1024F800FB68134343F00703FB607B68FA689A6044
:1025080000BF1437BD465DF8047B704780B487B0C0
:1025180000AFF860B9607A603B60FB689B687B61DC
:102528007B6923F47F437B613B681A027B681A430B
:10253800BB6813437A6913437B61FB687A699A60C5
:1025480000BF1C37BD465DF8047B704780B487B078
:1025580000AFF860B9607A60BB6803F01F0301221E
:1025680002FA03F37B61FB681A6A7B69DB431A4052
:10257800FB681A62FB681A6ABB6803F01F03796874
:1025880001FA03F31A43FB681A6200BF1C37BD4601
:102598005DF8047B704780B485B000AF786039601F
:1025A8007B6893F83C30012B01D1022332E07B6831
:1025B800012283F83C207B68022283F83D207B6857
:1025C8001B685B68FB607B681B689B68BB60FB687B
:1025D80023F07003FB603B681B68FA681343FB60D9
:1025E800BB6823F08003BB603B685B68BA68134331
:1025F800BB607B681B68FA685A607B681B68BA68AE
:102608009A607B68012283F83D207B68002283F86A
:102618003C20002318461437BD465DF8047B7047FC
:1026280080B485B000AF786039600023FB607B68B8
:1026380093F83C30012B01D102233DE07B68012255
:1026480083F83C20FB6823F0FF023B68DB681343F8
:10265800FB60FB6823F440723B689B681343FB6094
:10266800FB6823F480623B685B681343FB60FB688C
:1026780023F400623B681B681343FB60FB6823F488
:1026880080523B681B691343FB60FB6823F40052CC
:102698003B685B691343FB60FB6823F480423B683B
:1026A800DB691343FB607B681B68FA685A647B68C4
:1026B800002283F83C20002318461437BD465DF8F5
:1026C800047B704780B586B000AF3B1D00221A60BE
:1026D8005A609A60DA601A6100233B60104B1B6BEA
:1026E8000F4A43F0010313630D4B1B6B03F0010307
:1026F8003B603B68002220210A48FEF781FE202328
:102708007B600123BB600023FB6000233B613B1D12
:1027180019460448FEF7F2FC00BF1837BD4680BDD5
:10272800003802400000024080B500AFFEF76CFBA5
:1027380000F03CF8FFF7C6FF00F056F9184B60228E
:102748001A60174B31225A60154B00229A60144BBD
:1027580000221A61002212491248FFF7D3FA0346F1
:10276800002B01D000F080F800210E48FFF798FAFE
:102778000346002B01D000F077F8012220210A48F7
:10278800FEF73EFE4FF4FA70FEF7B0FB0022202160
:102798000548FEF735FE4FF4FA70FEF7A7FBECE7A5
:1027A80008020020240200200000024080B594B0F6
:1027B80000AF07F1200330220021184600F064FA28
:1027C80007F10C0300221A605A609A60DA601A61F5
:1027D8000023BB60224B1B6C214A43F080531364D7
:1027E8001F4B1B6C03F08053BB60BB6800237B60EE
:1027F8001C4B1B681B4A43F440431360194B1B686E
:1028080003F440437B607B6802233B620123FB6245
:1028180010233B630023BB6307F120031846FEF730
:1028280009FE0346002B01D000F01EF80F23FB60C1
:1028380000233B6100237B610023BB610023FB6114
:1028480007F10C0300211846FFF736F80346002B62
:1028580001D000F009F800BF5037BD4680BD00BF69
:10286800003802400070004080B400AF00BFBD4691
:102878005DF8047B7047000080B483B000AF00238C
:102888007B60104B5B6C0F4A43F4804353640D4BE1
:102898005B6C03F480437B607B6800233B60094BDF
:1028A8001B6C084A43F080531364064B1B6C03F0FF
:1028B80080533B603B6800BF0C37BD465DF8047B26
:1028C800704700BF0038024080B400AF00BFBD466B
:1028D8005DF8047B704780B400AFFEE780B400AFBA
:1028E800FEE780B400AFFEE780B400AFFEE780B437
:1028F80000AF00BFBD465DF8047B704780B400AFF1
:1029080000BFBD465DF8047B704780B400AF00BFD0
:10291800BD465DF8047B704780B500AFFEF7C6FA88
:1029280000BF80BD80B584B000AF7860114B1B68D4
:10293800002B02D10F4B104A1A600E4B1B68FB602C
:102948000C4B1A687B6813446A46934207D900F017
:1029580071F902460C2313604FF0FF3306E0054B74
:102968001A687B681344034A1360FB6818461037DB
:10297800BD4680BDF80100206802002080B400AF89
:10298800164BD3F88830154A43F47003C2F88830E0
:10299800134B1B68124A43F001031360104B0022CB
:1029A8009A600F4B1B680E4A23F0847323F480331C
:1029B80013600B4B0B4A5A60094B1B68084A23F4F7
:1029C80080231360064B0022DA60044B4FF000624C
:1029D8009A6000BFBD465DF8047B704700ED00E0DB
:1029E800003802401030002480B596B000AF07F1DF
:1029F800480300221A605A609A60DA6007F14003BF
:102A080000221A605A6007F1240300221A605A60F3
:102A18009A60DA601A615A619A613B1D202200218E
:102A2800184600F031F93E4B3E4A1A603C4B0F22E3
:102A38005A603B4B00229A60394B6322DA60384B6C
:102A480000221A61364B00225A61354B00229A61E6
:102A58003348FFF7C5F80346002B01D0FFF704FF02
:102A68004FF48053BB6407F1480319462C48FFF71D
:102A78000FFA0346002B01D0FFF7F6FE2848FFF7B0
:102A8800DAF80346002B01D0FFF7EEFE00233B6483
:102A980000237B6407F1400319462148FFF77BFDBB
:102AA8000346002B01D0FFF7DFFE60237B62002383
:102AB800BB620023FB6200233B6300237B6300238C
:102AC800BB630023FB6307F1240300221946144863
:102AD800FFF718F90346002B01D0FFF7C5FE0023C6
:102AE8007B600023BB600023FB6000233B61002365
:102AF8007B614FF40053BB6100233B623B1D1946C9
:102B08000748FFF78DFD0346002B01D0FFF7ACFE09
:102B1800034800F02BF800BF5837BD4680BD00BF02
:102B2800240200200000014080B485B000AF786026
:102B38007B681B680B4A93420DD10023FB600A4B4C
:102B48005B6C094A43F001035364074B5B6C03F069
:102B58000103FB60FB6800BF1437BD465DF8047BCA
:102B6800704700BF000001400038024080B588B0BF
:102B780000AF786007F10C0300221A605A609A606F
:102B8800DA601A617B681B68124A93421ED10023DF
:102B9800BB60114B1B6B104A43F0010313630E4BD0
:102BA8001B6B03F00103BB60BB684FF48073FB60D1
:102BB80002233B6100237B610023BB610123FB618E
:102BC80007F10C0319460548FEF798FA00BF2037AD
:102BD800BD4680BD000001400038024000000240B0
:102BE800DFF834D0002103E00C4B5B58435004312C
:102BF8000B480C4B42189A42F6D30B4A02E00023CA
:102C080042F8043B094B9A42F9D3FFF7B7FE00F0AC
:102C180017F8FFF789FD70470000022050490008A7
:102C280000000020DC010020DC01002068020020F8
:102C3800FEE70000014B1868704700BF0C00002039
:102C480070B50D4E0D4CA41BA4100025A54209D14A
:102C58000B4E0C4C01F046FDA41BA4100025A54208
:102C680005D170BD56F8253098470135EEE756F87E
:102C7800253098470135F2E74849000848490008D7
:102C8800484900084C49000802440346934200D1D1
:102C9800704703F8011BF9E72DE9FF4755EC104B86
:102CA8000D9FDDF830A0002D0E4691461946B8BF9D
:102CB80022462B4627F02007BBBF05F100431D46DF
:102CC80000232D23B8BF1446462F0B7004D0452F80
:102CD80000D10136022100E0032103AB019302ABCE
:102CE80000933246534645EC104B00F0ADFB472F9E
:102CF800804602D119F0010F26D0462F08EB0609AD
:102D080011D198F80030302B0AD100220023204638
:102D18002946FDF789FE18B9C6F10106CAF8006010
:102D2800DAF8003099440022002320462946FDF7AE
:102D38007BFE38B93022039B4B4505D2591C0391C1
:102D48001A70F8E7CDF80C90039B0E9AA3EB0803D2
:102D58004046136004B0BDE8F087F7B50029044683
:102D6800BABF49422D232B23092904F8022B4370AB
:102D780020DD0DF107031F460A2691FBF6F506FB39
:102D880015113031092D03F8011C03F1FF322946D2
:102D980009DC3031023B02F8011CBB42224604D355
:102DA800101A03B0F0BD1346E7E713F8012B04F837
:102DB800012BF2E7302319448370021DC170EFE73D
:102DC8002DE9F04F8DB00C46DDF8588016461F46A9
:102DD800054601F0F1F8036804931846FDF7F8F981
:102DE80000230A93D8F800300590073323F007032F
:102DF80003F1080294F818A0D4F800B0C8F800202D
:102E0800D3E90023C4E91223D4E9128929F0004345
:102E18000793CDF818804FF0FF32A74BDDE9060184
:102E2800FDF734FE70BB4FF0FF32A34BDDE906011E
:102E3800FDF70EFE30BB0022002340464946FDF751
:102E4800FDFD10B12D2384F843309C4A9C4BBAF108
:102E5800470F8CBF9046984603232BF0040223614A
:102E680022604FF00009009733460BAA21462846F6
:102E780000F0E6F9013040F08D804FF0FF300DB0E2
:102E8800BDE8F08F42464B4640464946FDF7FEFDF9
:102E980010B18C4A8C4BDAE761684B1C4BF48062AA
:102EA8000AA83ED1062363600023CDE9020309ABDB
:102EB800009349EC108B0DF123032260CDF804A098
:102EC80061682846FFF7E8FE0AF0DF03472B8046D3
:102ED80009D1099BD81C02DB6268934247DDAAF13D
:102EE800020A5FFA8AFABAF1650F099924D80139FA
:102EF800524604F150000991FFF72FFF0A9A131860
:102F0800012A8146236102DC2268D10701D50133F9
:102F180023619DF82330002BA5D02D2384F843305E
:102F2800A1E7BAF1670F00F07781BAF1470FBBD17B
:102F38000029B9D10123B6E7BAF1660F19D10029E2
:102F480063680CDD216113B92268D20702D5013309
:102F58000B442361099BA3654FF00009D9E713B916
:102F68002268D00701D50233F3E70123F1E74FF0D8
:102F7800670ADDE90932934205DB22682361D1073C
:102F8800E8D50133E5E7002BD4BFC3F102030123E1
:102F98001344DEE723685A0507D4236942463146BD
:102FA8002846B84701302BD167E7BAF1650F40F2E0
:102FB800DC8000220023D4E91201FDF735FD00284A
:102FC80033D00123414A31462846B84701303FF4FF
:102FD80054AFDDE909239A4202DB2368D8070FD5ED
:102FE800DDE9042331462846B84701303FF445AFB0
:102FF8004FF0000804F11A090A9B013B434509DC1C
:1030080023689B0700F10381E0680B9B9842B8BFD7
:10301800184634E701234A4631462846B847013066
:103028003FF42BAF08F10108E6E7099B002B2BDCE6
:103038000123264A31462846B84701303FF41DAFE0
:10304800099B23B90A9B13B92368D907D8D5DDE9A9
:10305800042331462846B84701303FF40EAF4FF0FD
:10306800000904F11A0A099B5B424B4501DC0A9BE3
:1030780094E70123524631462846B84701303FF4C9
:10308800FCAE09F10109EEE70A9AA36D9A42A8BFBE
:103098001A46002A914607DD13463146424628461D
:1030A800B84701303FF4E9AE04F11A034FF0000BC2
:1030B80029EAE979069315E0FFFFEF7F1C4700082E
:1030C8001847000824470008204700082847000838
:1030D8000123069A31462846B84701303FF4CDAE61
:1030E8000BF1010BD4F858A0AAEB09035B45EFDC00
:1030F800DDE909239A42D04415DB2368DA0712D4A4
:103108000A9B0999A3EB0A02A3EB010A9245A8BFFF
:103118009246BAF1000F0EDC4FF000082AEAEA7A6C
:1031280004F11A0919E0DDE9042331462846B847B5
:103138000130E5D1A1E65346424631462846B84714
:103148000130E9D199E601234A4631462846B84775
:1031580001303FF492AE08F10108DDE909239B1A1A
:10316800A3EB0A034345EEDC4AE70A9A012A01DC8D
:10317800DB073AD50123424631462846B847013095
:103188003FF47BAEDDE9042331462846B8470130D9
:1031980008F101083FF471AE0A9B002203F1FF3ADF
:1031A800D4E912010023FDF73FFCC8B95346424653
:1031B80031462846B84701300ED15EE60123524613
:1031C80031462846B84701303FF457AE08F10108A8
:1031D8000A9B013B4345F1DC4B4604F15002DEE615
:1031E8004FF0000804F11A0AF2E70123DFE7012390
:1031F8004A4631462846B84701303FF43EAE08F10A
:103208000108E3680B9A9B1A4345F0DCFCE64FF093
:10321800000804F11909F4E700293FF48BAE0023F4
:10322800CDE9020309AB009349EC108B2260CDF87D
:1032380004A00DF123032846FFF72EFD804648E63B
:103248002DE9F04791461F468A680B69DDF8208012
:103258009342B8BF1346C9F8003091F84320064698
:103268000C4612B10133C9F800302368990642BFF1
:10327800D9F800300233C9F80030256815F0060582
:1032880007D104F1190AE368D9F800209B1AAB4268
:1032980028DC94F843302268003318BF01239206D3
:1032A8002DD404F1430239463046C047013020D0BE
:1032B8002368E568D9F8002003F00603042B08BF4B
:1032C800AD1AA36822690CBF25EAE575002593426B
:1032D800C4BF9B1AED184FF000091A344D451AD196
:1032E800002008E00123524639463046C0470130E5
:1032F80003D14FF0FF30BDE8F0870135C3E7E1188F
:103308005A1C302081F84300224494F8451082F872
:1033180043100233C5E70123224639463046C047E9
:103328000130E6D009F10109D8E72DE9F74F036923
:103338000C69A3428046C0F28280013C01F1140767
:103348004FEA840C00F1140657F8245056F824006C
:1033580006EB0C03013507EB0C090193B0FBF5F5FF
:1033680095B34FF0000A3846B646D34650F8042BBA
:1033780093B205FB03A34FEA134A9BB2ABEB0303DB
:10338800120CDEF800B005FB02A213FA8BF34FEA29
:10339800124A1FFA82FBDEF80020CBEB124202EB46
:1033A80023429BB243EA024381454FEA224B4EF83F
:1033B800043BDBD256F80C3033B9019B043B9E42E8
:1033C8001A4630D3C8F81040404601F02BF80028C0
:1033D80025DB013530464FF0000C57F8042BD0F8A8
:1033E80000E093B2ACEB0303120C13FA8EF3C2EBBA
:1033F8001E4202EB23429BB243EA0243B9454FEA1D
:10340800224C40F8043BE8D256F8242006EB84030B
:103418002AB9043B9E421A460BD3C8F810402846E6
:1034280003B0BDE8F08F1268043B002ACAD1013C02
:10343800C5E71268043B002AEFD1013CEAE7002007
:10344800EEE70000000000002DE9F04F57EC106B8C
:1034580097B0456A069104460B921293DDF8808076
:10346800CDE900673DB9102000F0B4FD6062C0E905
:1034780001550560C560636A196851B15A684A60A8
:10348800012393408B60204600F0EBFD636A002225
:103498001A603B1EBBBF23F00043019300230122A7
:1034A800ACBFC8F80030C8F80020AF4BDDF8048086
:1034B80033EA080314D1129A42F20F731360009B87
:1034C80023B9C8F31300002800F04285219BDFF8D8
:1034D800ACB2002B00F044850BF1030300F03EBDB5
:1034E800DDE900670022002330463946FDF79CFAE3
:1034F800814668B1129A01231360219B002B00F0CA
:1035080024859A4B219A03F1FF3B136000F028BDF4
:1035180014AA15A947EC106B204600F0FAFFC8F36F
:103528000A550490002D7CD0C7F3130343F07F5B4A
:10353800B2464BF4401BA5F2FF35CDF84C90002263
:103548008B4B50465946FCF74FFE81A3D3E9002325
:10355800FDF702F880A3D3E90023FCF747FE0646EF
:1035680028460F46FCF78EFF7DA3D3E90023FCF71E
:10357800F3FF02460B4630463946FCF737FE06464F
:103588000F46FDF799FA0022824600233046394655
:10359800FDF754FA48B15046FCF774FF32463B46F3
:1035A800FDF742FA08B90AF1FF3ABAF1160F59D8ED
:1035B800704901EBCA01DDE90023D1E90001FDF7FB
:1035C8005BFA002850D00AF1FF3A00230F93149BAE
:1035D8005D1BB5F1010849BFC5F10103002305933F
:1035E8004FF0000858BF0593BAF1000F3EDB0023E7
:1035F800D044CDF838A00793069B092B00F29080A1
:10360800052BC4BF043B0693069BA3F10203CCBF62
:1036180000250125032B00F28F80DFE803F07D7F72
:103628003171DDE914531D4405F23240202813DDC1
:10363800C0F14000009B08FA00F805F2124023FA96
:1036480000F048EA0000FCF70DFF01238246A1F1D3
:10365800F87B013D139372E7009BC0F1200003FA49
:1036680000F0F0E70123B1E70F90B0E7059BA3EB6B
:103678000A030593CAF10003079300230E93BBE7DF
:1036880001230A930B9B002B59DD02939946666A26
:1036980000227260042202F114009842716853D922
:1036A800204600F0AAFC636A3060B9F10E0FD3F827
:1036B80000B000F2E680002D00F0E3809DED007B75
:1036C800BAF1000F8DED107B74DD2A4A0AF00F0362
:1036D80002EBC30393ED007B4FEA2A16F0068DED4B
:1036E800087B65D5244BDDE91001D3E90823FDF7F4
:1036F8005DF8CDE9000106F00F0603251E4F4CE0EA
:1037080001230A930B9B534403F1010902934B468F
:10371800012BB8BF0123BAE70023B2E70023F0E783
:103728000125002306930A954FF0FF33029399462B
:10373800002212230B92AAE701230A93F4E701233C
:10374800029399461A46F5E7013171605200A2E7E3
:1037580061436F63A787D23FB3C8608B288AC63F8F
:10376800FB799F501344D33F0000F07F294700089E
:103778000000F83F60470008384700083347000852
:10378800F10708D5DDE90801D7E90023FCF7E4FED5
:10379800CDE90801013576100837002EF0D1DDE9B2
:1037A8000823DDE90001FDF701F8CDE900011AE081
:1037B8000225A3E700F0A080CAF100069F4BA04FA6
:1037C80006F00F0203EBC203D3E90023DDE9100181
:1037D800FCF7C2FECDE90001361100230225002EB8
:1037E8007FD1002BE1D10F9B002B00F08780DDE912
:1037F80000670022934B30463946FDF71FF9002831
:103808007CD0B9F1000F79D0029B002B35DD0AF18D
:10381800FF330893394600228B4B3046FCF79CFE59
:10382800CDE90001029F01352846FCF72BFEDDE9B2
:103838000023FCF791FE0022844BFCF7D7FC0546D9
:10384800A1F15076002F5DD10022814BDDE9000106
:10385800FCF7CAFC2A463346CDE90001FDF70CF90E
:10386800002840F088822A4606F10043DDE900017D
:10387800FDF7E4F8002840F07C82DDE91023CDE96B
:103888000023159B002BC0F25081BAF10E0F00F3F4
:103898004C816A4B03EBCA0393ED007B0B9B002B17
:1038A8008DED027B80F2D880B9F1000F00F3D4804F
:1038B80040F05E820022664B51EC170BFCF74CFE81
:1038C800DDE90023FDF7CEF84F464E46002840F0CC
:1038D800348231230BF101058BF800300AF1010A1B
:1038E8002FE2F20705D5D7E90023FCF735FE0135AD
:1038F80001237610083772E7022574E7CDF820A077
:103908004F4691E74D4B03EBC70353E902010A9B6E
:10391800002B47D002460B4600204E49FCF746FFD5
:103928002A463346FCF760FCCDE90C015D46DDE92B
:103938000001FDF7C1F80646FCF7A4FD02460B4658
:10394800DDE90001FCF750FC303605F8016BDDE9D4
:103958000C23CDE90001FDF771F8002863D1DDE9FA
:10396800002300203749FCF73FFCDDE90C23FDF775
:1039780065F8002840F0B780A5EB0B039F427FF75E
:103988007CAF0022304BDDE90C01FCF7E5FD00229D
:10399800CDE90C012C4BDDE90001FCF7DDFDCDE99B
:1039A8000001C4E72A463346FCF7D6FDCDE90C01F1
:1039B8000BEB07055E46DDE90001FDF77DF80746DC
:1039C800FCF760FD303702460B46DDE90001FCF7E5
:1039D8000BFC06F8017BAE42CDE900014FF0000276
:1039E80026D11C4BDDE90C01FCF700FC02460B4616
:1039F800DDE90001FDF740F8002874D1DDE90C236A
:103A080000201449FCF7F0FB02460B46DDE90001F3
:103A1800FDF714F800283FF430AF15F8013C302BBF
:103A280005F1FF3202D0DDF820A04AE01546F4E7A0
:103A3800054BFCF791FDCDE90001BCE760470008A4
:103A4800384700080000F03F0000244000001C40F8
:103A5800000014400000E03FDDE900675D46DDE955
:103A6800022330463946FCF7A1FEFDF725F88046CB
:103A7800FCF708FDDDE90223FCF76EFD02460B4664
:103A88003046394608F13006FCF7AEFB05F8016B05
:103A9800A5EB0B06B14502460B4639D1FCF7A6FB50
:103AA800DDE9022306460F46FCF7E6FFC8B9DDE963
:103AB800022330463946FCF7B7FF10B118F0010F62
:103AC8000FD10499204600F0CCFA0023129A2B70EB
:103AD8000AF101031360219B002B00F041821D6055
:103AE8003EE2CDF820A015F8012C392A05F1FF3364
:103AF80008D19B450AD1089B0133089330238BF8E2
:103B080000305B461A7801321A708CE71D46EAE7E6
:103B180000229B4BFCF720FD0022002306460F469F
:103B2800FCF782FF00289AD0CBE70A9A002A00F017
:103B38008B80069A012A6EDC139A002A67D003F25A
:103B48003343079F059D059A01211A442046059293
:103B5800984400F026FB0646002D0CDDB8F1000F56
:103B680009DD4545059A2B46A8BF4346D21A05925A
:103B7800ED1AA8EB0308079BEBB10A9B002B67D053
:103B88008FB131463A46204600F0AAFB049A014616
:103B98000646204600F00EFB04990890204600F0E7
:103BA80060FA089B0493079BDA1B04D0049920460B
:103BB80000F096FB04900121204600F0F2FA0E9BDB
:103BC8000746002B00F0D0811A460146204600F037
:103BD80087FB069B012B074640DC009B002B39D155
:103BE800019BC3F31303002B36D1019B23F0004341
:103BF8001B0D1B052BB1059B0133059308F101082B
:103C0800012307930E9B002B2AD1012030E0149B3F
:103C1800C3F1360395E7079B09F1FF37BB42BFBFE6
:103C2800079B0797FA1A0E9BBBBF9B180E93DF1BC7
:103C38000027B9F1000FB5BF059B059DA3EB09054A
:103C48004B46B8BF00237EE7079F059D0A9E83E782
:103C5800079AABE70023D4E7009BD2E7002307933A
:103C68003B6907EB8303186900F04DFAC0F12000A7
:103C7800404410F01F0047D0C0F12003042B3BDD67
:103C8800059BC0F11C000344059305448044059B33
:103C9800002B05DD1A460499204600F06FFB0490BE
:103CA800B8F1000F05DD39464246204600F066FBB4
:103CB80007460F9B53B33946049800F0B3FB00281E
:103CC80024DA00230A220499204600F0E1F90A9B2D
:103CD80004900AF1FF3A002B00F04D810023314691
:103CE8000A22204600F0D4F9029B002B06464FDC3E
:103CF800069B022B4CDD11E0C9D0059A1C331A44EF
:103D080005921D449844C2E70346F6E7B9F1000F4F
:103D180038DC069B022B35DDCDF80890029B63B991
:103D280039460522204600F0B3F9014607460498B3
:103D380000F078FB00283FF7CCAD0B9B5D466FEA9F
:103D4800030A4FF000093946204600F08AF9002E90
:103D58003FF4B7AEB9F1000F05D0B14503D04946DD
:103D6800204600F07EF93146204600F07AF9A8E6B0
:103D780000273E46E1E7DDF820A03E46A9E500BF62
:103D8800000024400A9BCDF80890002B00F0FA8030
:103D9800002D05DD31462A46204600F0EFFA06469A
:103DA800079B002B4CD07168204600F026F9326939
:103DB80002320546920006F10C010C3000F012F9AF
:103DC80001222946204600F0D9FA009BCDF814B00C
:103DD80003F00103B1460793064639460498FFF7F6
:103DE800A4FA4946054600F13008049800F01AFB89
:103DF800324600903946204600F02EFBC368024642
:103E080003BB01460890049800F00CFB089A03468F
:103E180011462046089300F024F9089BA3B9069A96
:103E280092B9079A82B9B8F1390F29D0009B002BB3
:103E380001DD05F13108059B5D1C83F8008082E7F0
:103E48003046C2E70123E3E7009A002A04DB25D1C4
:103E5800069A1ABB079A0ABB002BECDD01220499CB
:103E6800204600F08BFA3946049000F0DBFA00286F
:103E780003DCE0D118F0010FDDD0B8F1390FD8D14B
:103E8800059B059A5D1C3923137015F8013C392BE5
:103E980005F1FF324FD00133137054E7059A002B18
:103EA80002F1010506DDB8F1390FE9D008F1010882
:103EB800059BC2E7029A05F8018CA5EB0B03934218
:103EC80021D000230A220499204600F0E1F8B145E8
:103ED80004904FF000034FF00A024946204605D1EE
:103EE80000F0D6F881460646059576E700F0D0F84A
:103EF8003146814600230A22204600F0C9F80646CA
:103F0800F2E74FF0000901220499204600F036FA42
:103F18003946049000F086FA0028B6DC02D118F081
:103F2800010FB2D115F8013C302B05F1FF327FF4B7
:103F38000AAF1546F6E7934505D131230AF1010A80
:103F48008BF80030FFE615469FE7DFF864B007E01E
:103F5800219BDFF860B01BB10BF10803219A1360B5
:103F6800584617B0BDE8F08F069B012B7FF735AE9A
:103F78000E9B079349E6029B002B03DC069B022B52
:103F88003FF7CCAE5D4639460498FFF7CEF900F10D
:103F9800300805F8018B029AA5EB0B039A42B0DDB5
:103FA80000230A220499204600F072F80490EAE7F8
:103FB800284700082A470008044B1B68186A044B66
:103FC800002808BF1846F030704700BF0C000020DA
:103FD80070000020024B0146186800F0F7BA00BFD5
:103FE8000C00002010B5431E0A44914200D110BDB8
:103FF80011F8014B03F8014FF7E770B5456A04461D
:104008000E463DB91020FFF7E5FF6062C0E9015593
:104018000560C560656AEB6883B1636ADB6853F85D
:104028002600B8B9012101FA06F56A1D920020465A
:1040380000F0BEFA60B1C0E901650EE0212204215A
:10404800204600F0B5FA636AE860DB68002BE4D12B
:10405800002070BD026843F826200023C0E903331E
:10406800F7E770B5446A06460D463CB91020FFF7DD
:10407800B1FF7062C0E901440460C4603DB1736A75
:104088006A68DB6853F82210296043F8225070BD33
:104098002DE9F0410D691F4606460C4601F1140C46
:1040A8000023DCF8000081B202FB01710F0C000C48
:1040B80002FB007089B2013301EB00419D424FEAD7
:1040C80010474CF8041BECDCD7B1A368AB4212DCF8
:1040D800616830460131FFF790FF2269023204F12E
:1040E8000C01804692000C30FFF77CFF21463046D9
:1040F800FFF7B7FF444604EB850301355F6125618F
:104108002046BDE8F081020C12040346B2B903044C
:10411800102013F07F4F04BF1B02083013F0704FBC
:1041280004BF1B01043013F0404F04BF9B00023052
:10413800002B06DB5B0003D5013070470020E8E761
:1041480020207047036813F0070201460BD0DA07F6
:1041580023D4980749BF5B089B0801200B605CBF0C
:104168000B600220704798B2A8B91B0C102013F0FE
:10417800FF0F04BF1B0A08301A0704BF1B090430CD
:104188009A0704BF9B080230DA0702D45B0806D0FE
:1041980001300B6070471046E9E700207047202087
:1041A800704710B50C460121FFF727FF0122446133
:1041B800026110BD2DE9F74F14460A6923699A4236
:1041C800B8BF0B468846BCBFA0461C46D8F810703E
:1041D800D4F81090D8F80830D8F8041007EB09067E
:1041E800B342B8BF0131FFF708FF00F1140505EB32
:1041F800860E2B460022734516D304F1140208F1EB
:10420800140102EB890301EB87070093009B0192DD
:1042180093420CD8002E03DD5EF8043D002B5DD0E0
:10422800066103B0BDE8F08F43F8042BE3E7B2F86A
:1042380000B0BBF1000F23D08946AC464FF0000810
:1042480059F8044BDCF800A0A3B21FFA8AFA0BFB5A
:1042580003A34FEA144ADCF8004043444FEA1448E9
:104268000BFB0A8404EB1344E2469BB243EA044383
:104278004F454FEA14484AF8043B2BD8CCF8048041
:10428800019BB3F802A00432BAF1000F20D02B68CA
:104298008946A8464FF0000BB9F800C0B8F80240AC
:1042A8000AFB0C445C44C4469BB243EA04434CF802
:1042B800043B59F8043BB8F804B01B0C0AFB03B3E1
:1042C80003EB14434F454FEA134B05D8C8F80430A5
:1042D80004359BE7D446B3E7E046DDE7013E99E7BE
:1042E8002DE9F843154612F0030206460F4607D09B
:1042F800013A214C002354F82220FFF7C9FE074653
:10430800AD1035D0746A3CB91020FFF763FE7062B7
:10431800C0E901440460C460D6F82480D8F8084095
:104328004CB940F271213046FFF73BFF0023C8F833
:104338000800044603604FF00008EB070AD5394629
:1043480022463046FFF736FF394681463046FFF7AA
:1043580088FE4F466D100BD0206838B9224621469A
:104368003046FFF727FF2060C0F800800446E4E7E6
:104378003846BDE8F88300BF284800082DE9F04713
:104388000C464FEA621A236949680AEB0309A368D5
:104398000746164609F10105AB4232DB3846FFF7FE
:1043A8002CFE0023804600F114011A4653452BDBEE
:1043B80020692AEAEA7A04F1140316F01F0201EBD5
:1043C8008A0103EB800C25D0C2F1200E00201E6864
:1043D8008A46964030434AF8040B53F8040B9C4530
:1043E80020FA0EF014D8486008B109F10205013D21
:1043F8003846C8F810502146FFF733FE4046BDE85E
:10440800F08701315B00C7E741F823200133CDE78E
:104418005146DCE7043953F8042B41F8042F9C4536
:10442800F9D8E4E703690A699B1A30B50CD1920000
:10443800143014318418114454F8045D51F8042DD3
:10444800954203D005D30123184630BDA042F3D3CB
:10445800FAE74FF0FF33F7E72DE9F0470D46074637
:10446800114628461446FFF7DDFF061E08D13146DF
:104478003846FFF7C2FD0123C0E90436BDE8F087DE
:10448800A4BF23462C4638466168A6BF1D460026B1
:104498000126FFF7B2FD2B69C660266905F11409EC
:1044A80004F1140202EB860709EB830800F11405F6
:1044B8004FF0000E52F804AB59F8044B1EFA8AF17B
:1044C800A3B2C91A230CC3EB1A4303EB214389B2E5
:1044D8004FEA234EC84541EA0343944645F8043B56
:1044E800E8D8BC4504D355F8043D83B10661C5E757
:1044F8005CF8041B1EFA81F31A1402EB11429BB2FA
:1045080043EA02434FEA224E45F8043BE9E7013EFD
:10451800E9E72DE9F7430E46012159EC108B1546C2
:10452800FFF76BFDC9F30A540746C9F3130334BBFD
:104538000193B8F1000327D002A840F8083DFFF71F
:1045480001FE0099F0B1019AC0F1200302FA03F3C9
:104558000B43C2407B610192019BBB61002B14BFDE
:10456800022101213961C4B1A4F233440444346006
:10457800C0F135002860384603B0BDE8F08343F445
:104588008013D5E77961E7E701A8FFF7DBFD019B19
:104598007B61012139612030E5E707EB8103A0F257
:1045A800324030601869FFF7AEFDC0EB4110E1E71B
:1045B80038B502FB01F4214600F008F8054618B1A9
:1045C80022460021FEF760FB284638BD70B5CD1C99
:1045D80025F0030508350C2D38BF0C25002D06469F
:1045E80001DBA94203D90C233360002070BD00F021
:1045F80069F8214A1468214691B9204C23681BB9EF
:10460800304600F03DF820602946304600F038F882
:10461800431C24D10C233360304600F054F8E4E7FF
:104628000B685B1B18D40B2B0FD90B60CD50CC1823
:10463800304600F048F804F10B00231D20F0070075
:10464800C31AD3D05A42E250D0E78C424B6816BF07
:10465800636013600C46EBE70C464968CCE7C41C62
:1046680024F00304A04205D0211A304600F008F8CF
:104678000130CFD02560DBE7FC01002000020020DC
:1046880038B5064C0023054608462360FEF74AF96C
:10469800431C02D1236803B12B6038BD640200209B
:1046A80082B001B901A942B14BB113780B601278FD
:1046B800101C18BF012002B070471046FBE76FF0CE
:1046C8000100F8E77047704749B1FF2A85BF8A2380
:1046D80003600A704FF0FF3098BF0120704708460A
:1046E80070470000F8B500BFF8BC08BC9E4670478C
:0C46F800F8B500BFF8BC08BC9E46704737
:104708000000000000000000010203040607080979
:10471800494E4600696E66004E414E006E616E005D
:104728003000496E66696E697479004E614E00000A
:104738000080E03779C34143176E05B5B5B8934695
:10474800F5F93FE9034F384D321D30F94877825A61
:104758003CBF737FDD4F1575000000000000F03F7F
:104768000000000000002440000000000000594044
:104778000000000000408F40000000000088C34097
:1047880000000000006AF8400000000080842E410C
:1047980000000000D01263410000000084D7974158
:1047A8000000000065CDCD41000000205FA002425E
:1047B800000000E876483742000000A2941A6D42D3
:1047C800000040E59C30A2420000901EC4BCD642C6
:1047D80000003426F56B0C430080E03779C3414371
:1047E80000A0D8855734764300C84E676DC1AB43E7
:1047F800003D9160E458E143408CB5781DAF154405
:1048080050EFE2D6E41A4B4492D54D06CFF08044DF
:10481800F64AE1C7022DB544B49DD9794378EA44F4
:1048280005000000190000007D0000004300504F03
:10483800534958002E00002020202020202020202E
:104848002828282828202020202020202020202038
:104858002020202020202088101010101010101068
:1048680010101010101010040404040404040404AC
:104878000410101010101010414141414141010134
:104888000101010101010101010101010101010110
:10489800010110101010101042424242424202021E
:1048A80002020202020202020202020202020202E0
:1048B800020210101010200000000000000000008C
:1048C80000000000000000000000000000000000E0
:1048D80000000000000000000000000000000000D0
:1048E80000000000000000000000000000000000C0
:1048F80000000000000000000000000000000000B0
:10490800000000000000000000000000000000009F
:10491800000000000000000000000000000000008F
:10492800000000000000000000000000000000007F
:08493800000000000000000077
:0849400000C2FF7F010000002E
:04494800BD010008A5
:04494C0099010008C5
:1049500010000000010000000024F40010000020FE
:104960000000000000000000000000000000000047
:104970000000000000000000000000000000000037
:104980000000000000000000000000000000000027
:104990000000000000000000000000000000000017
:1049A0000000000000000000000000000000000007
:1049B00000000000000000000000000000000000F7
:1049C00043000000000000000000000000000000A4
:1049D00000000000000000000000000000000000D7
:1049E0004300000000000000000000000000000084
:1049F00000000000000000000000000000000000B7
:104A00004300000000000000000000000000000063
:104A10000000000000000000000000000000000096
:104A20004300000000000000000000000000000043
:104A30000000000000000000000000000000000076
:104A40004300000000000000000000000000000023
:104A50000000000000000000000000000000000056
:104A60004300000000000000000000000000000003
:104A70000000000000000000000000000000000036
:104A800043000000000000000000000000000000E3
:104A90000000000000000000000000000000000016
:104AA000D1460008A9460008000000003E48000862
:104AB0003C4800083D4800083D4800083D480008C3
:104AC0003D4800083D4800083D4800083D480008B2
:104AD0003D4800083D480008FFFFFFFFFFFFFFFFC4
:104AE000FFFFFFFFFFFF0000010041534349490062
:104AF00000000000000000000000000000000000B6
:104B0000000000000000000000004153434949003C
:104B10000000000000000000000000000000000095
:0C4B200000000000000000000000000089
:0400000508002BE9DB
:00000001FF
